:100000000C9417010C9438010C9438010C943801AD
:100010000C9438010C9438010C9438010C9438017C
:100020000C9438010C9438010C9438010C9438016C
:100030000C9438010C9438010C9438010C9438015C
:100040000C9438010C9438010C9438010C9438014C
:100050000C9438010C9438010C9438010C947702FC
:100060000C9438010C9438010C9438010C9438012C
:100070000C9438010C9438010C9438010C9438011C
:100080000C9438010C9438010C9438010C9438010C
:100090000C9438010C9438010C9438010C943801FC
:1000A0000C9438010C9438010C9438010C943801EC
:1000B0000C9438010C9438010C9438010C943801DC
:1000C0000C9438010C9438010C9438010C943801CC
:1000D0000C9438010C9438010C9438010C943801BC
:1000E0000C9438010C94DF010C94BF010C948E0128
:1000F0000C94C7010C9489010C94A8010C94AF01D5
:100100000C94D1010C94CD010C94AC010C94B5016C
:100110000C94DB010C94B9010C94D5010C94C3012F
:100120000C94A0010C94A40100000A0B02090C0D10
:100130000E0807030401000000000000000000009A
:1001400000000000000000000000000000000000AF
:10015000000000001211100000000000000000006C
:10016000000000000000000000000000000000008F
:100170002200250028002B002E003100340002014F
:100180000000050108010B010000210024002700E8
:100190002A002D0030003300010100000401070196
:1001A0000A010505050507050808080802020202FC
:1001B0000A0A080804040404010101010101010103
:1001C0000303030303030303040707070C0C0C0CCE
:1001D0000C0C0C0C020202020606060606060606B7
:1001E0000B0B0B0B0B0B0B0B010210202008081044
:1001F0002040102040800201020108040201010297
:10020000040810204080804020100804020180046F
:1002100002018040201008040201080402010102CA
:10022000040810204080010204081020408011249E
:100230001FBECFEFD1E2DEBFCDBF00E00CBF22E09A
:10024000A8E0B2E001C01D92A631B207E1F712E0CA
:10025000A0E0B2E0E0E0FDE000E00BBF02C00790EC
:100260000D92A830B107D9F70E94C1020C947E0606
:100270000C94000090E0FC01E851FE4F24918E5553
:100280009E4FFC018491882399F090E0880F991F7C
:10029000FC01E857FE4FA591B491FC01E259FE4FD5
:1002A000859194918FB7F894EC91E22BEC938FBFEA
:1002B0000895282F30E0F901E85DFE4F9491F9018F
:1002C000E851FE4F44912E553E4FF90124912223CF
:1002D00009F435C0992311F191509231F8F4E92FC6
:1002E000F0E08827E958FE4F8F4F0C946004A80176
:1002F000AC018901A001A4018E01AF01B501B901D2
:10030000BF01C301C701CD01D1018E01D501DB01C0
:10031000DF01809180008F7780938000E22FF0E0F2
:10032000EE0FFF1FE259FE4FA591B4918FB7F894DD
:10033000EC91611148C040954E234C938FBF0895B6
:10034000809180008F7DE8CF80918000877FE4CF0F
:1003500084B58F7784BDE2CF84B58F7DFBCF80914C
:10036000B0008F778093B000D9CF8091B0008F7D9F
:10037000F9CF809190008F7780939000CFCF8091BC
:1003800090008F7DF9CF80919000877FF5CF80918D
:10039000A0008F778093A000C1CF8091A0008F7DB7
:1003A000F9CF8091A000877FF5CF809120018F77D2
:1003B00080932001B3CF809120018F7DF9CF809170
:1003C0002001877FF5CF4E2BB8CF3FB7F8948091AF
:1003D0000E0290910F02A0911002B091110226B569
:1003E000A89B05C02F3F19F00196A11DB11D3FBF6D
:1003F000BA2FA92F982F8827BC01CD01620F711D3C
:10040000811D911D42E0660F771F881F991F4A9535
:10041000D1F70895FC01248135816217730720F418
:1004200080819181009729F41092080288E092E07F
:100430000895860F971F0895CF93DF93EC0188816D
:100440009981009711F00E940405198218821D827B
:100450001C821B821A82DF91CF9108950F931F9304
:10046000CF93DF93EC0188819981009759F02A811D
:100470003B812617370730F081E0DF91CF911F9144
:100480000F9108958B016F5F7F4F0E948D0500973C
:1004900059F0998388831B830A832C813D81232B08
:1004A00059F7FC011082E8CF80E0E7CFEF92FF928E
:1004B0000F931F93CF93DF93EC017B018A01BA0165
:1004C0000E942E0281110BC0CE010E941C02CE019F
:1004D000DF91CF911F910F91FF90EF9008951D83B1
:1004E0000C83B701888199810E947706F0CF1F9213
:1004F0000F920FB60F9211242F933F938F939F93D8
:10050000AF93BF9380910A0290910B02A0910C02CD
:10051000B0910D023091090223E0230F2D3758F5D9
:100520000196A11DB11D2093090280930A029093A8
:100530000B02A0930C02B0930D0280910E029091D9
:100540000F02A0911002B09111020196A11DB11DE0
:1005500080930E0290930F02A0931002B0931102A9
:10056000BF91AF919F918F913F912F910F900FBEAF
:100570000F901F90189526E8230F0296A11DB11D1C
:10058000D2CFCF93DF93CDB7DEB768970FB6F8948D
:10059000DEBF0FBECDBF789484B5826084BD84B5C4
:1005A000816084BD85B5826085BD85B5816085BD6E
:1005B00080916E00816080936E0010928100809126
:1005C00081008260809381008091810081608093AE
:1005D0008100809180008160809380008091B100D3
:1005E00084608093B1008091B00081608093B000FE
:1005F0008091910082608093910080919100816050
:100600008093910080919000816080939000809110
:10061000A10082608093A1008091A10081608093FD
:10062000A1008091A00081608093A00080912101B1
:10063000826080932101809121018160809321015A
:100640008091200181608093200180917A008460F4
:1006500080937A0080917A00826080937A00809102
:100660007A00816080937A0080917A00806880931C
:100670007A001092C10088E00E943A0189E00E944D
:100680003A018AE00E943A018BE00E943A018E0111
:100690000F5F1F4F90E0292E90E0392ED12CC12CF6
:1006A0001C8A1B8A1E8A1D8A188E1F8A42E0B80186
:1006B000C6010E942B04F80101900020E9F7319750
:1006C000AF01401B510BB801CE0143960E94560268
:1006D0008F89988D049708F048C01A8219821C826D
:1006E0001B821E821D8241E050E066E072E0C8017C
:1006F0000E9456026B887C886114710469F1EF884E
:10070000F88CE114F104A9F08D819E81E80EF91EA8
:10071000B701C8010E942E028823F1F029813A8195
:100720008D819E81B301820F931F0E947706FE8206
:10073000ED8269817A816115710591F04D815E814B
:10074000CE0143960E94560289819A81009709F44E
:10075000BFCF0E940405BCCFC8010E941C02E9CF94
:10076000CE0143960E941C02EFCF70E060E0CE0104
:1007700043960E940A0261E0FC018081813309F006
:1007800060E088E00E94590161E070E0CE0143968C
:100790000E940A0261E0FC018081813309F060E07F
:1007A00089E00E94590162E070E0CE0143960E9408
:1007B0000A0261E0FC018081813309F060E08AE097
:1007C0000E94590163E070E0CE0143960E940A0244
:1007D00061E0FC018081813309F060E08BE00E94E0
:1007E00059010E94E5014B015C0188EE482E83E02F
:1007F000582E612C712C0E94E501681979098A092B
:100800009B09683E734081059105A8F3F1E04F1AFA
:1008100051086108710828EE820E23E0921EA11C87
:10082000B11C411451046104710429F7FFEFCF1A80
:10083000DF0A8B899C89009711F00E94040520E152
:10084000C216D10409F02CCF2114310409F426CFAB
:100850000E94000023CFBB274A3031F4992322F4B1
:10086000BDE2909581959F4F0C943704BB27FB0107
:100870005527AA27880F991FAA1FA41710F0A41B99
:1008800083955051B9F7A05DAA3308F0A95DA193F3
:10089000009779F7B111B1931192CB010C945004E8
:1008A000DC01FC01672F71917723E1F7329704C0D7
:1008B0007C916D9370836291AE17BF07C8F3089562
:1008C000EE0FFF1F881F8BBF0790F691E02D199444
:1008D0000F931F93CF93DF938230910510F482E042
:1008E00090E0E0911402F091150230E020E0B0E0D9
:1008F000A0E0309799F42115310509F44AC0281B6E
:10090000390B24303105D8F58A819B816115710539
:1009100089F1FB0193838283FE0111C040815181E3
:100920000281138148175907E0F04817590799F4D5
:10093000109761F012960C93129713961C933296AF
:10094000CF01DF91CF911F910F9108950093140271
:1009500010931502F4CF2115310551F042175307BA
:1009600038F0A901DB019A01BD01DF01F801C1CF17
:10097000EF01F9CF9093150280931402CDCFFE01C1
:10098000E20FF31F81939193225031093983288319
:10099000D7CF2091120230911302232B41F42091E2
:1009A000020230910302309313022093120220912D
:1009B0000002309101022115310541F42DB73EB7F7
:1009C0004091040250910502241B350BE091120264
:1009D000F0911302E217F307A0F42E1B3F0B281728
:1009E000390778F0AC014E5F5F4F2417350748F0A8
:1009F0004E0F5F1F50931302409312028193919305
:100A00009FCFF0E0E0E09CCFCF93DF930097E9F039
:100A1000FC01329713821282A0911402B091150248
:100A2000ED0130E020E01097A1F420813181820FA8
:100A3000931F20911202309113022817390709F0F1
:100A400061C0F0931302E0931202DF91CF910895F9
:100A5000EA01CE17DF07E8F54A815B819E01411567
:100A60005105B1F7E901FB83EA8349915991C40F1C
:100A7000D51FEC17FD0761F4808191810296840FE8
:100A8000951FE90199838883828193819B838A835F
:100A9000F0E0E0E012968D919C9113970097B9F5E4
:100AA0002D913C911197CD010296820F931F2091B9
:100AB0001202309113022817390739F6309751F591
:100AC0001092150210921402B0931302A093120216
:100AD000BCCFD383C28340815181840F951FC81737
:100AE000D90761F44E5F5F4F88819981480F591F84
:100AF000518340838A819B819383828321153105B1
:100B000009F0B0CFF0931502E09314029ECFFD01DF
:100B1000DC01C0CF13821282D7CF4F925F926F92C7
:100B20007F928F929F92AF92BF92CF92DF92EF927D
:100B3000FF920F931F93CF93DF938C01009799F44B
:100B4000CB01DF91CF911F910F91FF90EF90DF903C
:100B5000CF90BF90AF909F908F907F906F905F905D
:100B60004F900C946804FC01E60FF71F9C01225083
:100B70003109E217F30708F4AEC0D901CD91DC9139
:100B80001197C617D70720F1C530D10578F0CE01EF
:100B900004978617970750F0C61BD70B2297C1936F
:100BA000D1936D937C93CF010E940405C801DF911E
:100BB000CF911F910F91FF90EF90DF90CF90BF905A
:100BC000AF909F908F907F906F905F904F9008951F
:100BD0005B01AC1ABD0A4C018C0E9D1EA091140243
:100BE000B0911502512C412CF12CE12C109731F5CC
:100BF00080911202909113028815990509F05CC04A
:100C00004616570608F058C08091000290910102E4
:100C1000009741F48DB79EB74091040250910502B0
:100C2000841B950BE817F90708F055C0F0931302E1
:100C3000E0931202F90171836083B8CF8D919C918A
:100C4000119712966C90129713967C901397A81593
:100C5000B90559F56C0142E0C40ED11CCA14DB047D
:100C600020F1AC014A195B09DA011296159780F060
:100C70006282738251834083D9016D937C93E11426
:100C8000F10471F0D7011396FC93EE9312978ECF77
:100C900022968C0F9D1FF90191838083F301EFCF82
:100CA000F0931502E093140281CF4816590608F418
:100CB0002C017D01D3019ACFCB010E9468047C01F5
:100CC000009749F0AE01B8010E946E06C8010E946B
:100CD000040587016BCF10E000E068CFFB01DC0169
:100CE00002C001900D9241505040D8F70895FB0189
:100CF000DC0101900D920020E1F70895F894FFCFF8
:080D0000000016028000300023
:00000001FF
